:020000040800F2
:100000000028002059130008E9120008EF12000828
:10001000F5120008FB1200080113000800000000A0
:1000200000000000000000000000000007130008AE
:1000300013130008000000001F1300082B13000812
:10004000A1130008A1130008A1130008A1130008C0
:10005000A1130008A1130008A1130008A1130008B0
:10006000A1130008A1130008A1130008A1130008A0
:10007000A1130008A1130008A1130008A113000890
:10008000A1130008A1130008A1130008A113000880
:10009000A1130008A1130008A1130008A113000870
:1000A000A1130008A1130008A1130008A113000860
:1000B00039130008A113000800000000A113000874
:1000C000A11300080000000000000000A1130008B8
:1000D00000000000A1130008A113000800000000A8
:1000E000A1130008A1130008A113000800000000DC
:1000F0000000000000000000000000000000000000
:0C01000000000000000000005FF808F1A3
:10010C0010B5054C237833B9044B13B10448AFF345
:10011C0000800123237010BD380000200000000077
:10012C00D829000808B5034B1BB103490348AFF3AA
:10013C00008008BD000000003C000020D829000809
:10014C0080B500AF0E4B1B78013B032B16D801A2D8
:10015C0052F823F071010008770100087D010008B6
:10016C008301000800F05AFC08E000F0C1F905E03A
:10017C0000F0C8F902E000F0CFF900BF00BF80BD6D
:10018C000000002080B582B000AF01212C4801F0A6
:10019C00EFFB03463B700221294801F0E9FB0346C3
:1001AC007B700421264801F0E3FB0346BB704FF43F
:1001BC008071234801F0DCFB0346FB700023FB71CC
:1001CC0036E0FB7908333B4413F8083C012B23D170
:1001DC00FB791C4AD35C002B1ED1FB79032B1CD85A
:1001EC0001A252F823F000BF050200080D0200081E
:1001FC00150200081D020008134B01221A700CE0B6
:10020C00124B01221A7008E0114B01221A7004E003
:10021C00104B01221A7000E000BFFA79FB7908320A
:10022C003A4412F8081C074AD154FB790133FB718C
:10023C00FB79032BC5D900BF00BF0837BD4680BD75
:10024C00000C0140580000205400002055000020F4
:10025C00560000205700002080B500AFFFF792FF3A
:10026C00344B1B78DBB2002B17D0324B00221A70A8
:10027C00314B1A78314BA3FB021399080B465B00E8
:10028C000B445B00D31ADBB20133DAB22A4B1A707F
:10029C00294B1B78184600F0A3FB294B1B78DBB2CB
:1002AC00002B16D0264B00221A70234B1B78042BE4
:1002BC000CD0042B0EDC022B02D0032B03D009E054
:1002CC0000F000FD06E000F007FD03E000F00EFD7D
:1002DC0000E000BF1B4B1B78DBB2002B16D0194B78
:1002EC0000221A70144B1B78042B0CD0042B0EDC40
:1002FC00022B02D0032B03D009E000F001FD06E035
:10030C0000F00AFD03E000F013FD00E000BF0E4B0F
:10031C001B78DBB2002B0AD00B4B00221A70064B59
:10032C0001221A70044B1B78184600F059FB00BFD1
:10033C0080BD00BF5400002000000020ABAAAAAA78
:10034C0055000020560000205700002090B585B0C5
:10035C0000AF2D4A3B1D92E8030083E80300002305
:10036C00FB7348E0FA7BFB7B2849895C284AD15413
:10037C00FB7B5B0010333B4433F80C3CFC7B194695
:10038C00244801F0F5FA03461A46204B1A55FB7B1C
:10039C001E4AD25CFB7B1E49CB5C9A4205D1FA7B90
:1003AC00FB7B1A49895C1C4AD154FB7B1A4AD35CEF
:1003BC00002B14D1FB7B194A32F81330632B09D86C
:1003CC00FB7B164A32F81320013291B2134A22F801
:1003DC0013100DE0FB7B124A0121D15408E0FB7B8A
:1003EC000E4A002122F81310FB7B0D4A0021D15438
:1003FC00FB7B0133FB73FB7B032BB3D900BF00BF2B
:10040C001437BD4690BD00BFF029000860000020E5
:10041C0064000020000C01405C0000206C000020F7
:10042C006800002080B500AF4FF48061044801F0F3
:10043C00CEFA4FF40051024801F0C9FA00BF80BD5A
:10044C00000C014080B500AF4FF48051044801F01E
:10045C00BEFA4FF40041024801F0B9FA00BF80BD6A
:10046C00000C014080B500AF4FF40061044801F06E
:10047C00AEFA4FF48041024801F0A9FA00BF80BDEA
:10048C00000C014080B500AF00224FF4806105489C
:10049C0001F085FA00224FF40051024801F07FFA76
:1004AC0000BF80BD000C014080B500AF00224FF4AE
:1004BC000061054801F073FA00224FF480410248B4
:1004CC0001F06DFA00BF80BD000C014080B500AF9B
:1004DC0000224FF48051054801F061FA00224FF4DC
:1004EC000041024801F05BFA00BF80BD000C0140E6
:1004FC0080B500AFFFF7D8FFFFF7E8FFFFF792FFDB
:10050C0000BF80BD80B500AFFFF7BCFFFFF7DEFF7B
:10051C00FFF7A8FF00BF80BD80B500AFFFF7B2FFAB
:10052C00FFF7C2FFFFF78EFF00BF80BD80B582B022
:10053C0000AF78607B68092B00F2808101A252F831
:10054C0023F000BF79050008C10500080906000862
:10055C005106000899060008E10600082907000862
:10056C0071070008B90700080108000800220121E2
:10057C00B54801F014FA00220221B34801F00FFA39
:10058C0000220421B04801F00AFA00220821AE48EA
:10059C0001F005FA00221021AB4801F000FA00220C
:1005AC002021A94801F0FBF901224021A64801F0C5
:1005BC00F6F944E101220121A34801F0F0F90122EE
:1005CC000821A14801F0EBF9012210219E4801F00D
:1005DC00E6F9012220219C4801F0E1F90122402199
:1005EC00994801F0DCF900220221974801F0D7F973
:1005FC0000220421944801F0D2F920E100220121CB
:10060C00914801F0CCF9002202218F4801F0C7F982
:10061C00012204218C4801F0C2F9002208218A48E9
:10062C0001F0BDF900221021874801F0B8F9012230
:10063C002021854801F0B3F900224021824801F0C5
:10064C00AEF9FCE0002201217F4801F0A8F900225C
:10065C0002217D4801F0A3F9002204217A4801F01F
:10066C009EF900220821784801F099F90122102105
:10067C00754801F094F901222021734801F08FF99B
:10068C0000224021704801F08AF9D8E001220121B2
:10069C006D4801F084F9002202216B4801F07FF9CA
:1006AC0000220421684801F07AF9012208216648E9
:1006BC0001F075F901221021634801F070F9002254
:1006CC002021614801F06BF9002240215E4801F0C5
:1006DC0066F9B4E0002201215B4801F060F90122C7
:1006EC000221594801F05BF900220421564801F01F
:1006FC0056F900220821544801F051F90122102129
:10070C00514801F04CF9002220214F4801F047F9E3
:10071C00002240214C4801F042F990E000220121D6
:10072C00494801F03CF901220221474801F037F910
:10073C0000220421444801F032F9002208214248E9
:10074C0001F02DF9002210213F4801F028F9002278
:10075C0020213D4801F023F9002240213A4801F0C4
:10076C001EF96CE000220121374801F018F9002233
:10077C000221354801F013F900220421324801F01E
:10078C000EF901220821304801F009F9012210214B
:10079C002D4801F004F9012220212B4801F0FFF82B
:1007AC0001224021284801F0FAF848E000220121FA
:1007BC00254801F0F4F800220221234801F0EFF85B
:1007CC0000220421204801F0EAF8002208211E48EA
:1007DC0001F0E5F8002210211B4801F0E0F800229E
:1007EC002021194801F0DBF800224021164801F0C5
:1007FC00D6F824E000220121134801F0D0F80022A1
:10080C000221114801F0CBF8002204210E4801F01E
:10081C00C6F8002208210C4801F0C1F80122102171
:10082C00094801F0BCF800222021074801F0B7F874
:10083C0000224021044801F0B2F800E000BF00BFE4
:10084C000837BD4680BD00BF0008014080B582B0AE
:10085C0000AF786039607B68594A82FB03129210B2
:10086C00DB17D31ADAB2574B1A707A68544B83FBE6
:10087C0002139910D317C91A0B469B000B445B004B
:10088C00D11ACAB2504B1A703B684D4A82FB031204
:10089C009210DB17D31ADAB24C4B1A703A68484BE9
:1008AC0083FB02139910D317C91A0B469B000B44F8
:1008BC005B00D11ACAB2464B1A707B68092B02DC5A
:1008CC00404B00221A703B68092B02DC3F4B002284
:1008DC001A70002278213F4801F061F80022802133
:1008EC003C4801F05CF83C4B1B68042B57D801A228
:1008FC0052F823F0150900082B0900084B090008D1
:10090C006B0900088B09000801228021314801F095
:10091C0046F8324B1B681846FFF708FE40E00022F1
:10092C0010212C4801F03BF801220821294801F044
:10093C0036F8244B1B781846FFF7F8FD30E0002200
:10094C000821244801F02BF801221021214801F044
:10095C0026F81D4B1B781846FFF7E8FD20E0002217
:10096C0040211C4801F01BF801222021194801F0FC
:10097C0016F8164B1B781846FFF7D8FD10E000222E
:10098C002021144801F00BF801224021114801F0FC
:10099C0006F80F4B1B781846FFF7C8FD00E000BFA8
:1009AC000D4B1B6801330C4A13600B4B1B68042B5B
:1009BC0002DD094B00221A6000BF0837BD4680BD1E
:1009CC006766666678000020790000207A000020B7
:1009DC007B000020000C014074000020040000206B
:1009EC0080B483B000AF7860034A7B68136000BFAB
:1009FC000C37BD4680BC70470400002080B500AFAA
:100A0C00044B1B68044A126811461846FFF71EFF78
:100A1C0000BF80BD7C0000208000002080B500AFAE
:100A2C0000224FF4D841734800F0B9FF724B1B6899
:100A3C00002B19DB704B1B685A1E6F490A606F4AFA
:100A4C00136001224FF400516A4800F0A8FF002205
:100A5C004FF48041674800F0A2FF00224FF40041A0
:100A6C00644800F09CFF3AE0654B1B68002B19DBD7
:100A7C0001224FF400415F4800F091FF00224FF437
:100A8C0000515C4800F08BFF00224FF48041594824
:100A9C0000F085FF5A4B1B685A1E59490A60574A89
:100AAC0013601CE0574B1B68002B18DB554B1B6865
:100ABC005A1E54490A60514A136001224FF4804176
:100ACC004C4800F06CFF00224FF40051494800F0F4
:100ADC0066FF00224FF40041464800F060FF4A4B8D
:100AEC001B68002B19DB484B1B685A1E46490A60D1
:100AFC00464A136001224FF480513E4800F04FFFEC
:100B0C0000224FF480613B4800F049FF00224FF473
:100B1C000061384800F043FF3AE03D4B1B68002B66
:100B2C0019DB3B4B1B685A1E39490A60374A136064
:100B3C0001224FF400612F4800F031FF00224FF4E6
:100B4C0080612C4800F02BFF00224FF48051294883
:100B5C0000F025FF1CE02F4B1B68002B18DB2D4BE6
:100B6C001B685A1E2B490A60284A136001224FF455
:100B7C008061204800F013FF00224FF400611D48F3
:100B8C0000F00DFF00224FF480511A4800F007FFCF
:100B9C00204B1B68002B13DA1B4B1B68002B0FDA46
:100BAC001B4B1B68002B0BDA1B4B1B68194A136081
:100BBC001A4B1B68144A1360194B1B68144A1360B8
:100BCC000D4B1B68002B13DA0D4B1B68002B0FDA37
:100BDC000C4B1B68002B0BDA0F4B1B68064A13607F
:100BEC000E4B1B68064A13600D4B1B68054A1360BD
:100BFC0000BF80BD000C0140080000207C000020DC
:100C0C00100000200C0000201C00002080000020A0
:100C1C0018000020140000202000002028000020D4
:100C2C002400002080B483B000AF7860054A7B6854
:100C3C001360054A7B68136000BF0C37BD4680BC4F
:100C4C00704700BF7C0000208000002080B483B07F
:100C5C0000AF78607B681B685A1C7B681A607B68E5
:100C6C001B680A2B02DD7B6801221A607B681B68FB
:100C7C00054A13607B681B68044A136000BF0C377D
:100C8C00BD4680BC704700BF7C0000208000002067
:100C9C0080B582B000AF786039607B681B68002B30
:100CAC000BDD7B681A683B681A607B6800221A604F
:100CBC003B681B681846FFF7B5FF00BF0837BD46F9
:100CCC0080BD000080B500AF0248FFF7BFFF00BF3A
:100CDC0080BD00BF8400002080B500AF0248FFF744
:100CEC00B5FF00BF80BD00BF8800002080B500AFFD
:100CFC000248FFF7ABFF00BF80BD00BF8C00002097
:100D0C0080B500AF02490348FFF7C2FF00BF80BDAA
:100D1C00200000208400002080B500AF0249034869
:100D2C00FFF7B6FF00BF80BD240000208800002024
:100D3C0080B500AF02490348FFF7AAFF00BF80BD92
:100D4C00280000208C00002080B582B000AF7860B5
:100D5C0000F094F900BF0837BD4680BD80B500AFE8
:100D6C0000F01AFB00F02CF800F0B2F800F064F878
:100D7C000E4801F073FA00F015F90A2200210C4814
:100D8C0000F01CF90A2201210A4800F017F94FF46F
:100D9C007A720321084800F011F9642204210748F3
:100DAC0000F00CF900F0FEF9FCE700BF9000002009
:100DBC00090A0008590300084D01000865020008E3
:100DCC0080B590B000AF07F1180328220021184617
:100DDC0001F0F4FD3B1D00221A605A609A60DA6043
:100DEC001A610223BB610123BB621023FB62002347
:100DFC007B6307F11803184600F002FE0346002B34
:100E0C0001D000F0C9F80F237B600023BB600023E6
:100E1C00FB6000233B6100237B613B1D00211846D6
:100E2C0001F070F80346002B01D000F0B5F800BFBC
:100E3C004037BD4680BD000080B586B000AF07F1DD
:100E4C00080300221A605A609A60DA603B4600225E
:100E5C001A605A601D4B4FF080421A601B4B41F6D2
:100E6C003F725A60194B00229A60184B0922DA60C3
:100E7C00164B00221A61154B00229A61134801F09F
:100E8C009DF90346002B01D000F086F84FF48053F7
:100E9C00BB6007F1080319460C4801F01BFB034625
:100EAC00002B01D000F078F800233B6000237B601E
:100EBC003B461946054801F0F3FC0346002B01D0D4
:100ECC0000F06AF800BF1837BD4680BD90000020C6
:100EDC0080B586B000AF07F1080300221A605A6093
:100EEC009A60DA60294B9B69284A43F004039361AA
:100EFC00264B9B6903F004037B607B68234B9B6947
:100F0C00224A43F008039361204B9B6903F00803CA
:100F1C003B603B68002240F27F111D4800F03FFD12
:100F2C0000224FF6F8411B4800F039FD40F27F13C8
:100F3C00BB600123FB6000233B6102237B6107F153
:100F4C0008031946124800F097FB40F20713BB60E8
:100F5C000023FB6001233B6107F1080319460D4890
:100F6C0000F08AFB4FF6F843BB600123FB600023C3
:100F7C003B6102237B6107F108031946054800F029
:100F8C007BFB00BF1837BD4680BD00BF0010024080
:100F9C0000080140000C014080B400AF72B600BFE5
:100FAC00FEE7000080B400AF034B00221A7000BFB4
:100FBC00BD4680BC704700BFF803002080B485B0EC
:100FCC0000AFF860B9607A60294B1B78272B4AD8A0
:100FDC00274B1B781946274A0B469B000B449B005A
:100FEC001344FA681A60224B1B781846BB68224AD5
:100FFC00A2FB0323DA081F4903469B0003449B0012
:10100C000B4404331A601A4B1B7818467B681A4A37
:10101C00A2FB0323DA08174903469B0003449B00F9
:10102C000B4408331A60124B1B781946114A0B46B5
:10103C009B000B449B0013440C3300221A700C4B86
:10104C001A780B4B1B78194610460A4A0B469B0024
:10105C000B449B00134410331860054B1B78013371
:10106C00DAB2034B1A7000BF1437BD4680BC704710
:10107C00F8030020D8000020CDCCCCCC80B483B0B9
:10108C0000AF0023FB7147E0FA79294913469B0016
:10109C0013449B000B4404331B68002B12D0FA79C9
:1010AC00234913469B0013449B000B4404331B68D9
:1010BC00591E1F4813469B0013449B0003440433E2
:1010CC00196026E0F979FA7919480B469B000B4414
:1010DC009B00034408331968154813469B001344BE
:1010EC009B00034404331960FA79114913469B00A1
:1010FC0013449B000B440C331B78FA790133D8B2A0
:10110C000B4913469B0013449B000B440C330246C3
:10111C001A70FB790133FB71064B1B78FA799A42F2
:10112C00B2D300BF00BF0C37BD4680BC704700BFB8
:10113C00D8000020F803002080B483B000AF7860A2
:10114C007B68272B27D816497A6813469B001344D3
:10115C009B000B4400221A6011497A6813469B00CD
:10116C0013449B000B44043300221A600C497A6828
:10117C0013469B0013449B000B44083300221A6057
:10118C0007497A6813469B0013449B000B440C33AD
:10119C0000221A7000E000BF0C37BD4680BC7047BF
:1011AC00D800002080B582B000AF0023FB7141E075
:1011BC00FA79254913469B0013449B000B440C33CE
:1011CC001B78002B33D0FA791F4913469B0013442C
:1011DC009B000B441B689847FA791B4913469B00EC
:1011EC0013449B000B440C331B78013BD8B21649BB
:1011FC0013469B0013449B000B440C3302461A709D
:10120C00FA79114913469B0013449B000B44083395
:10121C001B68002B0BD1FA790B4913469B00134426
:10122C009B000B4410331B681846FFF785FFFB79B6
:10123C000133FB71054B1B78FA799A42B8D300BF86
:10124C0000BF0837BD4680BDD8000020F803002041
:10125C0080B483B000AF0E4B9B690D4A43F0010381
:10126C0093610B4B9B6903F001037B607B68084B1C
:10127C00DB69074A43F08053D361054BDB6903F00C
:10128C0080533B603B6800BF0C37BD4680BC704749
:10129C000010024080B584B000AF78607B681B689A
:1012AC00B3F1804F13D10C4BDB690B4A43F00103B4
:1012BC00D361094BDB6903F00103FB60FB6800227F
:1012CC0000211C2000F0A1F91C2000F0BAF900BF8D
:1012DC001037BD4680BD00BF0010024080B400AF87
:1012EC00FEE780B400AFFEE780B400AFFEE780B449
:1012FC0000AFFEE780B400AFFEE780B400AF00BFE4
:10130C00BD4680BC704780B400AF00BFBD4680BCFA
:10131C00704780B400AF00BFBD4680BC704780B53D
:10132C0000AF00F07FF800BF80BD000080B500AFBB
:10133C00024800F0DFFF00BF80BD00BF900000201E
:10134C0080B400AF00BFBD4680BC7047FFF7F8FF0C
:10135C000B480C490C4A002302E0D458C450043307
:10136C00C4188C42F9D3094A094C002301E01360DC
:10137C000432A242FBD301F0FDFAFFF7EFFC7047F9
:10138C000000002038000020242A0008380000202B
:10139C0000040020FEE7000080B500AF084B1B687E
:1013AC00074A43F010031360032000F023F90F20C9
:1013BC0000F008F8FFF74CFF0023184680BD00BF73
:1013CC000020024080B582B000AF7860124B1A68E2
:1013DC00124B1B7819464FF47A73B3FBF1F3B2FB43
:1013EC00F3F3184600F03BF90346002B01D0012320
:1013FC000EE07B680F2B0AD8002279684FF0FF3083
:10140C0000F003F9064A7B681360002300E0012317
:10141C0018460837BD4680BD2C0000203400002043
:10142C003000002080B400AF054B1B781A46054BEA
:10143C001B681344034A136000BFBD4680BC704751
:10144C0034000020FC03002080B400AF024B1B686A
:10145C001846BD4680BC7047FC03002080B485B0A4
:10146C0000AF78607B6803F00703FB600C4BDB6814
:10147C00BB60BA684FF6FF031340BB60FB681A02EF
:10148C00BB68134343F0BF6343F40033BB60044AAF
:10149C00BB68D36000BF1437BD4680BC704700BF2B
:1014AC0000ED00E080B400AF044BDB681B0A03F0D6
:1014BC0007031846BD4680BC704700BF00ED00E036
:1014CC0080B483B000AF0346FB7197F90730002B53
:1014DC000BDBFB7903F01F02064997F907305B0918
:1014EC00012000FA02F241F8232000BF0C37BD4660
:1014FC0080BC704700E100E080B483B000AF0346CD
:10150C003960FB7197F90730002B0ADB3B68DAB2C4
:10151C000C4997F907301201D2B20B4483F800231F
:10152C000AE03B68DAB20849FB7903F00F03043B8D
:10153C001201D2B20B441A7600BF0C37BD4680BCE8
:10154C00704700BF00E100E000ED00E080B489B01E
:10155C0000AFF860B9607A60FB6803F00703FB61C9
:10156C00FB69C3F10703042B28BF0423BB61FB6990
:10157C000433062B02D9FB69033B00E000237B619B
:10158C004FF0FF32BB6902FA03F3DA43BB681A402F
:10159C007B699A404FF0FF317B6901FA03F3D94321
:1015AC007B680B40134318462437BD4680BC7047FC
:1015BC0080B582B000AF78607B68013BB3F1807F6F
:1015CC0001D301230FE00A4A7B68013B53600F21D2
:1015DC004FF0FF30FFF790FF054B00229A60044B51
:1015EC0007221A60002318460837BD4680BD00BF8D
:1015FC0010E000E080B582B000AF78607868FFF74B
:10160C002DFF00BF0837BD4680BD80B586B000AF4A
:10161C000346B9607A60FB7300237B61FFF742FFDE
:10162C0078617A68B9687869FFF790FF024697F994
:10163C000F3011461846FFF75FFF00BF1837BD4645
:10164C0080BD80B582B000AF0346FB7197F90730BF
:10165C001846FFF735FF00BF0837BD4680BD80B583
:10166C0082B000AF78607868FFF7A2FF0346184697
:10167C000837BD4680BD000080B48BB000AF7860E9
:10168C00396000237B6200233B6261E101227B6AAB
:10169C0002FA03F3FB613B681B68FA691340BB61F8
:1016AC00BA69FB699A4240F050813B685B68974A83
:1016BC0093425ED0954A934275D8954A934258D03E
:1016CC00934A93426FD8934A934252D0914A934291
:1016DC0069D8914A93424CD08F4A934263D88F4A2F
:1016EC00934246D08D4A93425DD8122B2AD8122BA6
:1016FC0059D801A252F823F07F1700085917000897
:10170C006B170008AD170008B3170008B3170008D3
:10171C00B3170008B3170008B3170008B317000875
:10172C00B3170008B3170008B3170008B317000865
:10173C00B3170008B3170008B317000861170008A7
:10174C0075170008764A934213D02CE03B68DB688F
:10175C003B6229E03B68DB6804333B6224E03B6876
:10176C00DB6808333B621FE03B68DB680C333B6291
:10177C001AE03B689B68002B02D104233B6213E008
:10178C003B689B68012B05D108233B627B68FA6997
:10179C001A6109E008233B627B68FA695A6103E02D
:1017AC0000233B6200E000BFBB69FF2B01D87B68C4
:1017BC0001E07B6804337B61BB69FF2B02D87B6A39
:1017CC009B0002E07B6A083B9B003B617B691A68CB
:1017DC000F213B6901FA03F3DB431A40396A3B6979
:1017EC0001FA03F31A437B691A603B685B6803F0E8
:1017FC008053002B00F0A9804A4B9B69494A43F067
:10180C0001039361474B9B6903F00103BB60BB6809
:10181C00454A7B6A9B08023352F82330FB607B6A93
:10182C0003F003039B000F2202FA03F3DB43FA6875
:10183C001340FB607B683D4A93420DD07B683C4A69
:10184C00934207D07B683B4A934201D1022304E0C8
:10185C00032302E0012300E000237A6A02F0030272
:10186C0092009340FA681343FB602F497B6A9B08F4
:10187C000233FA6841F823203B685B6803F4801359
:10188C00002B06D02C4B9A682B49BB6913438B60F9
:10189C0006E0294B9A68BB69DB43274913408B60F0
:1018AC003B685B6803F40013002B06D0224BDA680C
:1018BC002149BB691343CB6006E01F4BDA68BB6957
:1018CC00DB431D491340CB603B685B6803F400337A
:1018DC00002B06D0184B5A681749BB6913434B6051
:1018EC0006E0154B5A68BB69DB43134913404B6048
:1018FC003B685B6803F48033002B1FD00E4B1A68D7
:10190C000D49BB6913430B601FE000BF0000321090
:10191C0000003110000022100000211000001210F5
:10192C0000001110001002400000014000080140AE
:10193C00000C014000100140000401400B4B1A68E0
:10194C00BB69DB43094913400B607B6A01337B6243
:10195C003B681A687B6A22FA03F3002B7FF496AE7D
:10196C0000BF00BF2C37BD4680BC7047000401404F
:10197C0080B485B000AF78600B467B807B689A683A
:10198C007B881340002B02D00123FB7301E0002362
:10199C00FB73FB7B18461437BD4680BC704780B484
:1019AC0083B000AF78600B467B8013467B707B78EE
:1019BC00002B03D07A887B681A6103E07B881A04B9
:1019CC007B681A6100BF0C37BD4680BC704780B481
:1019DC0085B000AF78600B467B807B68DB68FB6072
:1019EC007A88FB6813401A04FB68D9437B880B4048
:1019FC001A437B681A6100BF1437BD4680BC704720
:101A0C0080B586B000AF78607B68002B01D10123D4
:101A1C0072E27B681B6803F00103002B00F08780E7
:101A2C00924B5B6803F00C03042B0CD08F4B5B6860
:101A3C0003F00C03082B12D18C4B5B6803F480333E
:101A4C00B3F5803F0BD1894B1B6803F40033002B9B
:101A5C006CD07B685B68002B68D101234CE27B68FF
:101A6C005B68B3F5803F06D1804B1B687F4A43F41B
:101A7C00803313602EE07B685B68002B0CD17B4BB2
:101A8C001B687A4A23F480331360784B1B68774ABF
:101A9C0023F4802313601DE07B685B68B3F5A02FF3
:101AAC000CD1724B1B68714A43F4802313606F4B4B
:101ABC001B686E4A43F4803313600BE06B4B1B685E
:101ACC006A4A23F480331360684B1B68674A23F41B
:101ADC00802313607B685B68002B13D0FFF7B4FC8A
:101AEC00386108E0FFF7B0FC02463B69D31A642B5F
:101AFC0001D9032300E25D4B1B6803F40033002B78
:101B0C00F0D014E0FFF7A0FC386108E0FFF79CFC74
:101B1C0002463B69D31A642B01D90323ECE1534BE6
:101B2C001B6803F40033002BF0D100E000BF7B688E
:101B3C001B6803F00203002B63D04C4B5B6803F073
:101B4C000C03002B0BD0494B5B6803F00C03082BE8
:101B5C001CD1464B5B6803F48033002B16D1434BEE
:101B6C001B6803F00203002B05D07B681B69012B5B
:101B7C0001D00123C0E13D4B1B6823F0F8027B68C8
:101B8C005B69DB00394913430B603AE07B681B69E6
:101B9C00002B20D0364B01221A60FFF755FC386120
:101BAC0008E0FFF751FC02463B69D31A022B01D91E
:101BBC000323A1E12D4B1B6803F00203002BF0D093
:101BCC002A4B1B6823F0F8027B685B69DB00274912
:101BDC0013430B6015E0264B00221A60FFF734FC10
:101BEC00386108E0FFF730FC02463B69D31A022B40
:101BFC0001D9032380E11D4B1B6803F00203002B6A
:101C0C00F0D17B681B6803F00803002B3AD07B688B
:101C1C009B69002B19D0174B01221A60FFF714FC9B
:101C2C00386108E0FFF710FC02463B69D31A022B1F
:101C3C0001D9032360E10D4B5B6A03F00203002B17
:101C4C00F0D0012000F09CFA1CE00A4B00221A6034
:101C5C00FFF7FAFB38610FE0FFF7F6FB02463B6932
:101C6C00D31A022B08D9032346E100BF001002400F
:101C7C000000424280044242924B5B6A03F0020332
:101C8C00002BE9D17B681B6803F00403002B00F0E8
:101C9C00A6800023FB758B4BDB6903F08053002B74
:101CAC000DD1884BDB69874A43F08053D361854B58
:101CBC00DB6903F08053BB60BB680123FB75824B6F
:101CCC001B6803F48073002B18D17F4B1B687E4A72
:101CDC0043F480731360FFF7B7FB386108E0FFF73C
:101CEC00B3FB02463B69D31A642B01D9032303E1EE
:101CFC00754B1B6803F48073002BF0D07B68DB689A
:101D0C00012B06D16F4B1B6A6E4A43F00103136221
:101D1C002DE07B68DB68002B0CD16A4B1B6A694A8F
:101D2C0023F001031362674B1B6A664A23F004031A
:101D3C0013621CE07B68DB68052B0CD1614B1B6AC2
:101D4C00604A43F0040313625E4B1B6A5D4A43F026
:101D5C00010313620BE05B4B1B6A5A4A23F001032D
:101D6C001362584B1B6A574A23F0040313627B68B7
:101D7C00DB68002B15D0FFF767FB38610AE0FFF733
:101D8C0063FB02463B69D31A41F28832934201D974
:101D9C000323B1E04B4B1B6A03F00203002BEED084
:101DAC0014E0FFF751FB38610AE0FFF74DFB0246E8
:101DBC003B69D31A41F28832934201D903239BE049
:101DCC00404B1B6A03F00203002BEED1FB7D012B71
:101DDC0005D13C4BDB693B4A23F08053D3617B68D4
:101DEC00DB69002B00F08780364B5B6803F00C033B
:101DFC00082B61D07B68DB69022B46D1334B002268
:101E0C001A60FFF721FB386108E0FFF71DFB024663
:101E1C003B69D31A022B01D903236DE0294B1B68B4
:101E2C0003F00073002BF0D17B681B6AB3F5803F85
:101E3C0008D1244B5B6823F400327B689B682149F2
:101E4C0013434B601F4B5B6823F474127B68196A55
:101E5C007B685B6A0B431B4913434B601B4B012292
:101E6C001A60FFF7F1FA386108E0FFF7EDFA024665
:101E7C003B69D31A022B01D903233DE0114B1B689C
:101E8C0003F00073002BF0D035E0104B00221A60E9
:101E9C00FFF7DAFA386108E0FFF7D6FA02463B6939
:101EAC00D31A022B01D9032326E0064B1B6803F03F
:101EBC000073002BF0D11EE07B68DB69012B07D18E
:101ECC00012319E000100240007000406000424203
:101EDC000B4B5B68FB60FB6803F480327B681B6A0E
:101EEC009A4206D1FB6803F470127B685B6A9A42D3
:101EFC0001D0012300E0002318461837BD4680BDF1
:101F0C000010024080B584B000AF786039607B6807
:101F1C00002B01D10123D0E06A4B1B6803F00703AF
:101F2C003A689A4210D9674B1B6823F0070265493F
:101F3C003B6813430B60634B1B6803F007033A6861
:101F4C009A4201D00123B8E07B681B6803F00203BE
:101F5C00002B20D07B681B6803F00403002B05D0FA
:101F6C00594B5B68584A43F4E06353607B681B68C9
:101F7C0003F00803002B05D0534B5B68524A43F423
:101F8C0060535360504B5B6823F0F0027B689B6896
:101F9C004D4913434B607B681B6803F00103002B16
:101FAC0040D07B685B68012B07D1474B1B6803F45F
:101FBC000033002B15D101237FE07B685B68022B7B
:101FCC0007D1414B1B6803F00073002B09D101238F
:101FDC0073E03D4B1B6803F00203002B01D101237E
:101FEC006BE0394B5B6823F003027B685B68364916
:101FFC0013434B60FFF728FAF8600AE0FFF724FA66
:10200C000246FB68D31A41F28832934201D903236A
:10201C0053E02D4B5B6803F00C027B685B689B0004
:10202C009A42EBD1274B1B6803F007033A689A429C
:10203C0010D2244B1B6823F0070222493B68134340
:10204C000B60204B1B6803F007033A689A4201D0DF
:10205C00012332E07B681B6803F00403002B08D0DB
:10206C00194B5B6823F4E0627B68DB681649134309
:10207C004B607B681B6803F00803002B09D0124BE4
:10208C005B6823F460527B681B69DB000E491343C9
:10209C004B6000F021F802460B4B5B681B0903F008
:1020AC000F030A49CB5C22FA03F3094A1360094B6C
:1020BC001B681846FFF786F9002318461037BD46F3
:1020CC0080BD00BF0020024000100240F82900082B
:1020DC002C0000203000002080B487B000AF00231B
:1020EC00FB600023BB6000237B6100237B6000232B
:1020FC003B611E4B5B68FB60FB6803F00C03042B1D
:10210C0002D0082B03D027E0194B3B6127E0FB687A
:10211C009B0C03F00F03174AD35C7B60FB6803F442
:10212C008033002B10D0114B5B685B0C03F0010368
:10213C00114AD35CBB607B680D4A03FB02F2BB689F
:10214C00B2FBF3F37B6104E07B680C4A02FB03F304
:10215C007B617B693B6102E0054B3B6100BF3B69E6
:10216C0018461C37BD4680BC704700BF00100240AB
:10217C0000127A00082A0008182A000800093D00FD
:10218C0080B485B000AF78600A4B1B680A4AA2FB8A
:10219C0003235B0A7A6802FB03F3FB6000BFFB6856
:1021AC005A1EFA60002BF9D100BF00BF1437BD4690
:1021BC0080BC70472C000020D34D621080B582B0DB
:1021CC0000AF78607B68002B01D1012341E07B6874
:1021DC0093F83D30DBB2002B06D17B68002283F8EC
:1021EC003C207868FFF756F87B68022283F83D2084
:1021FC007B681A687B6804331946104600F056FA5F
:10220C007B68012283F846207B68012283F83E20FC
:10221C007B68012283F83F207B68012283F84020F1
:10222C007B68012283F841207B68012283F84220DD
:10223C007B68012283F843207B68012283F84420C9
:10224C007B68012283F845207B68012283F83D20BE
:10225C00002318460837BD4680BD000080B485B009
:10226C0000AF78607B6893F83D30DBB2012B01D076
:10227C00012335E07B68022283F83D207B681B68D4
:10228C00DA687B681B6842F00102DA607B681B68C5
:10229C00164A934209D07B681B68B3F1804F04D077
:1022AC007B681B68124A934211D17B681B689B6840
:1022BC0003F00703FB60FB68062B10D07B681B68E0
:1022CC001A687B681B6842F001021A6007E07B68A1
:1022DC001B681A687B681B6842F001021A600023B5
:1022EC0018461437BD4680BC704700BF002C014017
:1022FC000004004080B584B000AF78607B681B6838
:10230C00DB68FB607B681B681B69BB60BB6803F008
:10231C000203002B20D0FB6803F00203002B1BD020
:10232C007B681B686FF002021A617B6801221A77C6
:10233C007B681B689B6903F00303002B03D0786850
:10234C0000F098F905E0786800F08BF9786800F0F7
:10235C009AF97B6800221A77BB6803F00403002B00
:10236C0020D0FB6803F00403002B1BD07B681B6898
:10237C006FF004021A617B6802221A777B681B6873
:10238C009B6903F44073002B03D0786800F072F95A
:10239C0005E0786800F065F9786800F074F97B68FE
:1023AC0000221A77BB6803F00803002B20D0FB68CF
:1023BC0003F00803002B1BD07B681B686FF008022E
:1023CC001A617B6804221A777B681B68DB6903F04F
:1023DC000303002B03D0786800F04CF905E0786813
:1023EC0000F03FF9786800F04EF97B6800221A770C
:1023FC00BB6803F01003002B20D0FB6803F0100324
:10240C00002B1BD07B681B686FF010021A617B6875
:10241C0008221A777B681B68DB6903F44073002B76
:10242C0003D0786800F026F905E0786800F019F917
:10243C00786800F028F97B6800221A77BB6803F0F3
:10244C000103002B0CD0FB6803F00103002B07D019
:10245C007B681B686FF001021A617868FEF774FCE8
:10246C00BB6803F08003002B0CD0FB6803F08003E7
:10247C00002B07D07B681B686FF080021A617868AC
:10248C0000F06FFABB6803F04003002B0CD0FB6824
:10249C0003F04003002B07D07B681B686FF04002F1
:1024AC001A61786800F0F8F8BB6803F02003002B81
:1024BC000CD0FB6803F02003002B07D07B681B6853
:1024CC006FF020021A61786800F042FA00BF1037F2
:1024DC00BD4680BD80B584B000AF78603960002304
:1024EC00FB737B6893F83C30012B01D10223B4E0E1
:1024FC007B68012283F83C207B68022283F83D2014
:10250C007B681B689B68BB60BB6823F07703BB6070
:10251C00BB6823F47F43BB607B681B68BA689A6016
:10252C003B681B68B3F5005F3ED0B3F5005F00F26B
:10253C008780B3F5805F00F08680B3F5805F7FD82D
:10254C00702B1AD0702B7BD8602B50D0602B77D887
:10255C00502B3CD0502B73D8402B58D0402B6FD8DD
:10256C00302B64D0302B6BD8202B60D0202B67D82D
:10257C00002B5CD0102B5AD062E07B6818683B684B
:10258C0099683B685A683B68DB6800F06AF97B68BD
:10259C001B689B68BB60BB6843F07703BB607B68C0
:1025AC001B68BA689A604FE07B6818683B6899684A
:1025BC003B685A683B68DB6800F053F97B681B6822
:1025CC009A687B681B6842F480429A603CE07B68A6
:1025DC0018683B6859683B68DB681A4600F0CAF813
:1025EC007B681B685021184600F021F92CE07B68B1
:1025FC0018683B6859683B68DB681A4600F0E8F8D5
:10260C007B681B686021184600F011F91CE07B68A0
:10261C0018683B6859683B68DB681A4600F0AAF8F2
:10262C007B681B684021184600F001F90CE07B68C0
:10263C001A683B681B681946104600F0F8F803E06E
:10264C000123FB7300E000BF7B68012283F83D206F
:10265C007B68002283F83C20FB7B18461037BD4674
:10266C0080BD80B483B000AF786000BF0C37BD462E
:10267C0080BC704780B483B000AF786000BF0C376B
:10268C00BD4680BC704780B483B000AF786000BF9B
:10269C000C37BD4680BC704780B483B000AF786007
:1026AC0000BF0C37BD4680BC7047000080B485B0BD
:1026BC0000AF786039607B681B68FB607B682B4AD5
:1026CC00934207D07B68B3F1804F03D07B68284AD4
:1026DC00934208D1FB6823F07003FB603B685B6896
:1026EC00FA681343FB607B68204A934207D07B68EF
:1026FC00B3F1804F03D07B681D4A934208D1FB682D
:10270C0023F44073FB603B68DB68FA681343FB609F
:10271C00FB6823F080023B685B691343FB607B68BA
:10272C00FA681A603B689A687B68DA623B681A68D8
:10273C007B689A627B680D4A934203D13B681A69A5
:10274C007B681A637B6801225A617B681B6903F002
:10275C000103002B05D07B681B6923F001027B6809
:10276C001A6100BF1437BD4680BC7047002C014075
:10277C000004004080B487B000AFF860B9607A60A4
:10278C00FB681B6A7B61FB681B6A23F00102FB6818
:10279C001A62FB689B693B613B6923F0F0033B6168
:1027AC007B681B013A6913433B617B6923F00A0385
:1027BC007B617A69BB6813437B61FB683A699A61F8
:1027CC00FB687A691A6200BF1C37BD4680BC704733
:1027DC0080B487B000AFF860B9607A60FB681B6AA0
:1027EC007B61FB681B6A23F01002FB681A62FB68B2
:1027FC009B693B613B6923F470433B617B681B0322
:10280C003A6913433B617B6923F0A0037B61BB688E
:10281C001B017A6913437B61FB683A699A61FB6817
:10282C007A691A6200BF1C37BD4680BC704780B401
:10283C0085B000AF786039607B689B68FB60FB6893
:10284C0023F07003FB603A68FB68134343F0070303
:10285C00FB607B68FA689A6000BF1437BD4680BC89
:10286C00704780B487B000AFF860B9607A603B60A5
:10287C00FB689B687B617B6923F47F437B613B68CE
:10288C001A027B681A43BB6813437A6913437B6152
:10289C00FB687A699A6000BF1C37BD4680BC7047E4
:1028AC0080B485B000AF786039607B6893F83C30B9
:1028BC00012B01D1022341E07B68012283F83C20EB
:1028CC007B68022283F83D207B681B685B68FB6099
:1028DC007B681B689B68BB60FB6823F07003FB6024
:1028EC003B681B68FA681343FB607B681B68FA68DB
:1028FC005A607B681B68144A934209D07B681B683A
:10290C00B3F1804F04D07B681B68104A93420CD102
:10291C00BB6823F08003BB603B685B68BA681343F9
:10292C00BB607B681B68BA689A607B68012283F87D
:10293C003D207B68002283F83C2000231846143786
:10294C00BD4680BC704700BF002C01400004004015
:10295C0080B483B000AF786000BF0C37BD4680BC3C
:10296C00704780B483B000AF786000BF0C37BD46B1
:10297C0080BC704770B500260C4D0D4C641BA41028
:10298C00A64209D100F022F800260A4D0A4C641B1D
:10299C00A410A64205D170BD55F8043B98470136EA
:1029AC00EEE755F8043B98470136F2E71C2A00087D
:1029BC001C2A00081C2A0008202A0008034602448E
:1029CC00934200D1704703F8011BF9E7F8B500BF3B
:1029DC00F8BC08BC9E467047F8B500BFF8BC08BCF4
:0429EC009E4670474C
:1029F00001000200040000010000000000000000CF
:102A00000102030406070809020304050607080972
:0C2A10000A0B0C0D0E0F1010010200004C
:042A1C00310100087C
:042A20000D0100089C
:102A24000100000001000000050000000300000098
:102A34000500000005000000030000000500000080
:102A440005000000030000000500000000127A00E9
:082A5400100000000100000069
:040000050800135983
:00000001FF
